:020000040800F2
:1000000000500020CD270008BD250008C5250008A8
:10001000CD250008D5250008DD25000800000000DA
:10002000000000000000000000000000E5250008BE
:10003000F125000800000000FD2500080926000841
:10004000152800081528000815280008152800089C
:10005000152800081528000815280008152800088C
:10006000152800081528000815280008152600087E
:10007000152800081528000815280008152800086C
:10008000152800081528000829260008152800084A
:10009000152800081528000815280008152800084C
:1000A000152800081528000815280008152800083C
:1000B000152800081528000815280008152800082C
:1000C000152800081528000815280008152800081C
:1000D000152800081528000815280008152800080C
:1000E0001528000815280008152800080000000041
:1000F0000000000000000000000000000000000000
:0C01000000000000000000005FF808F1A3
:1001100010B5054C237833B9044B13B10448AFF341
:1001200000800123237010BDD401002000000000D6
:100130004080000808B5034B1BB103490348AFF3E7
:10014000008008BD00000000D801002040800008A9
:10015000034613F8012B002AFBD1181A0138704707
:1001600081F0004102E000BF83F0004330B54FEA68
:1001700041044FEA430594EA050F08BF90EA020FD5
:100180001FBF54EA000C55EA020C7FEA645C7FEA68
:10019000655C00F0E2804FEA5454D4EB5555B8BF8B
:1001A0006D420CDD2C4480EA020281EA030382EAFC
:1001B000000083EA010180EA020281EA0303362D8E
:1001C00088BF30BD11F0004F4FEA01314FF4801C61
:1001D0004CEA113102D0404261EB410113F0004F73
:1001E0004FEA03334CEA133302D0524263EB43032A
:1001F00094EA050F00F0A780A4F10104D5F1200EC8
:100200000DDB02FA0EFC22FA05F2801841F1000122
:1002100003FA0EF2801843FA05F359410EE0A5F1F6
:1002200020050EF1200E012A03FA0EFC28BF4CF027
:10023000020C43FA05F3C01851EBE37101F00045DD
:1002400007D54FF0000EDCF1000C7EEB00006EEBEA
:100250000101B1F5801F1BD3B1F5001F0CD3490874
:100260005FEA30004FEA3C0C04F101044FEA4452CB
:1002700012F5800F80F09A80BCF1004F08BF5FEA52
:10028000500C50F1000041EB045141EA050130BD32
:100290005FEA4C0C404141EB0101013C28BFB1F544
:1002A000801FE9D291F0000F04BF01460020B1FA8F
:1002B00081F308BF2033A3F10B03B3F120020CDA62
:1002C0000C3208DD02F1140CC2F10C0201FA0CF040
:1002D00021FA02F10CE002F11402D8BFC2F1200CA5
:1002E00001FA02F120FA0CFCDCBF41EA0C0190405B
:1002F000E41AA2BF01EB0451294330BD6FEA0404A4
:100300001F3C1CDA0C340EDC04F11404C4F120028E
:1003100020FA04F001FA02F340EA030021FA04F3A0
:1003200045EA030130BDC4F10C04C4F1200220FAF7
:1003300002F001FA04F340EA0300294630BD21FA35
:1003400004F0294630BD94F0000F83F4801306BFFB
:1003500081F480110134013D4EE77FEA645C18BFEF
:100360007FEA655C29D094EA050F08BF90EA020F86
:1003700005D054EA000C04BF1946104630BD91EA7E
:10038000030F1EBF0021002030BD5FEA545C05D181
:100390004000494128BF41F0004130BD14F58004C0
:1003A0003CBF01F5801130BD01F0004545F0FE4134
:1003B00041F470014FF0000030BD7FEA645C1ABF69
:1003C000194610467FEA655C1CBF0B46024650EAA0
:1003D000013406BF52EA033591EA030F41F40021CC
:1003E00030BD00BF90F0000F04BF0021704730B552
:1003F0004FF4806404F132044FF000054FF0000127
:1004000050E700BF90F0000F04BF0021704730B5E7
:100410004FF4806404F1320410F0004548BF4042BC
:100420004FF000013EE700BF42004FEAE2014FEA11
:1004300031014FEA02701FBF12F07F4393F07F4FEC
:1004400081F06051704732F07F4208BF704793F0EF
:100450007F4F04BF41F40021704730B54FF4607402
:1004600001F0004521F000411CE700BF50EA010205
:1004700008BF704730B54FF000050AE050EA0102AE
:1004800008BF704730B511F0004502D5404261EB1E
:1004900041014FF4806404F132045FEA915C3FF45F
:1004A000D8AE4FF003025FEADC0C18BF03325FEAFC
:1004B000DC0C18BF033202EBDC02C2F1200300FAAD
:1004C00003FC20FA02F001FA03FE40EA0E0021FAD2
:1004D00002F11444BDE600BF70B54FF0FF0C4CF4C0
:1004E000E06C1CEA11541DBF1CEA135594EA0C0F72
:1004F00095EA0C0F00F0DEF82C4481EA030621EAAD
:100500004C5123EA4C5350EA013518BF52EA0335E7
:1005100041F4801143F4801338D0A0FB02CE4FF099
:100520000005E1FB02E506F00042E0FB03E54FF0C9
:100530000006E1FB03569CF0000F18BF4EF0010EC1
:10054000A4F1FF04B6F5007F64F5407404D25FEABD
:100550004E0E6D4146EB060642EAC62141EA555170
:100560004FEAC52040EA5E504FEACE2EB4F1FD0CB2
:1005700088BFBCF5E06F1ED8BEF1004F08BF5FEA30
:10058000500E50F1000041EB045170BD06F00046E2
:1005900046EA010140EA020081EA0301B4EB5C048F
:1005A000C2BFD4EB0C0541EA045170BD41F4801187
:1005B0004FF0000E013C00F3AB8014F1360FDEBFAC
:1005C000002001F0004170BDC4F10004203C35DA88
:1005D0000C341BDC04F11404C4F1200500FA05F30B
:1005E00020FA04F001FA05F240EA020001F00042AC
:1005F00021F0004110EBD37021FA04F642EB060122
:100600005EEA430E08BF20EAD37070BDC4F10C044B
:10061000C4F1200500FA04F320FA05F001FA04F20F
:1006200040EA020001F0004110EBD37041F10001FB
:100630005EEA430E08BF20EAD37070BDC4F1200506
:1006400000FA05F24EEA020E20FA04F301FA05F26E
:1006500043EA020321FA04F001F0004121FA04F216
:1006600020EA020000EBD3705EEA430E08BF20EAE6
:10067000D37070BD94F0000F0FD101F00046400020
:1006800041EB010111F4801F08BF013CF7D041EAA2
:10069000060195F0000F18BF704703F000465200A6
:1006A00043EB030313F4801F08BF013DF7D043EA77
:1006B0000603704794EA0C0F0CEA135518BF95EA2D
:1006C0000C0F0CD050EA410618BF52EA4306D1D1B4
:1006D00081EA030101F000414FF0000070BD50EAD3
:1006E000410606BF1046194652EA430619D094EA5D
:1006F0000C0F02D150EA013613D195EA0C0F05D147
:1007000052EA03361CBF104619460AD181EA03019A
:1007100001F0004141F0FE4141F470014FF0000052
:1007200070BD41F0FE4141F4780170BD70B54FF0ED
:10073000FF0C4CF4E06C1CEA11541DBF1CEA13556D
:1007400094EA0C0F95EA0C0F00F0A7F8A4EB05044F
:1007500081EA030E52EA03354FEA013100F0888046
:100760004FEA03334FF0805545EA131343EA12630F
:100770004FEA022245EA111545EA10654FEA0026C4
:100780000EF000419D4208BF964244F1FD0404F57D
:10079000407402D25B084FEA3202B61A65EB0305D9
:1007A0005B084FEA32024FF480104FF4002CB6EB96
:1007B000020E75EB030E22BFB61A754640EA0C0016
:1007C0005B084FEA3202B6EB020E75EB030E22BF56
:1007D000B61A754640EA5C005B084FEA3202B6EB97
:1007E000020E75EB030E22BFB61A754640EA9C0056
:1007F0005B084FEA3202B6EB020E75EB030E22BF26
:10080000B61A754640EADC0055EA060E18D04FEAE3
:10081000051545EA16754FEA06164FEAC30343EA83
:1008200052734FEAC2025FEA1C1CC0D111F4801F50
:100830000BD141EA00014FF000004FF0004CB6E749
:1008400011F4801F04BF01430020B4F1FD0C88BFE8
:10085000BCF5E06F3FF6AFAEB5EB030C04BFB6EBF3
:10086000020C5FEA500C50F1000041EB045170BDE6
:100870000EF0004E4EEA113114EB5C04C2BFD4EB13
:100880000C0541EA045170BD41F480114FF0000E97
:10089000013C90E645EA060E8DE60CEA135594EA13
:1008A0000C0F08BF95EA0C0F3FF43BAF94EA0C0F16
:1008B0000AD150EA01347FF434AF95EA0C0F7FF48B
:1008C00025AF104619462CE795EA0C0F06D152EADF
:1008D00003353FF4FDAE1046194622E750EA4106C3
:1008E00018BF52EA43067FF4C5AE50EA41047FF4D4
:1008F0000DAF52EA43057FF4EBAE12E74FF0FF3C39
:1009000006E000BF4FF0010C02E000BF4FF0010C09
:100910004DF804CD4FEA410C7FEA6C5C4FEA430C82
:1009200018BF7FEA6C5C1BD001B050EA410C0CBFD1
:1009300052EA430C91EA030F02BF90EA020F002033
:10094000704710F1000F91EA030F58BF994208BF9A
:1009500090422CBFD8176FEAE37040F00100704757
:100960004FEA410C7FEA6C5C02D150EA013C07D1AE
:100970004FEA430C7FEA6C5CD6D152EA033CD3D0F9
:100980005DF8040B704700BF8446104662468C46F3
:100990001946634600E000BF01B5FFF7B7FF002826
:1009A00048BF10F1000F01BD4DF808EDFFF7F4FF4F
:1009B0000CBF012000205DF808FB00BF4DF808EDDA
:1009C000FFF7EAFF34BF012000205DF808FB00BFFD
:1009D0004DF808EDFFF7E0FF94BF012000205DF81F
:1009E00008FB00BF4DF808EDFFF7CEFF94BF0120D4
:1009F00000205DF808FB00BF4DF808EDFFF7C4FFCD
:100A000034BF012000205DF808FB00BF4FEA410C15
:100A10007FEA6C5C02D150EA013C0AD14FEA430CF8
:100A20007FEA6C5C02D152EA033C02D14FF0000035
:100A300070474FF0010070474FEA410212F5001273
:100A400015D211D56FF47873B3EB625212D94FEA15
:100A5000C12343F0004343EA505311F0004F23FAFF
:100A600002F018BF404270474FF00000704750EA54
:100A7000013005D111F0004008BF6FF00040704711
:100A80004FF00000704700BF80F0004002E000BF60
:100A900081F0004142001FBF5FEA410392EA030F69
:100AA0007FEA226C7FEA236C6AD04FEA1262D2EBB3
:100AB0001363C1BFD218414048404140B8BF5B42B8
:100AC000192B88BF704710F0004F40F4000020F051
:100AD0007F4018BF404211F0004F41F4000121F067
:100AE0007F4118BF494292EA030F3FD0A2F10102B1
:100AF00041FA03FC10EB0C00C3F1200301FA03F1EF
:100B000000F0004302D5494260EB4000B0F5000F11
:100B100013D3B0F1807F06D340084FEA310102F1D0
:100B20000102FE2A51D2B1F1004F40EBC25008BF82
:100B300020F0010040EA03007047490040EB00004C
:100B4000013A28BFB0F5000FEDD2B0FA80FCACF14D
:100B5000080CB2EB0C0200FA0CF0AABF00EBC2507A
:100B600052421843BCBFD0401843704792F0000F68
:100B700081F4000106BF80F400000132013BB5E7BB
:100B80004FEA41037FEA226C18BF7FEA236C21D031
:100B900092EA030F04D092F0000F08BF0846704796
:100BA00090EA010F1CBF0020704712F07F4F04D164
:100BB000400028BF40F00040704712F100723CBF77
:100BC00000F50000704700F0004343F0FE4040F4A1
:100BD000000070477FEA226216BF08467FEA23635F
:100BE0000146420206BF5FEA412390EA010F40F44A
:100BF000800070474FF0000304E000BF10F0004396
:100C000048BF40425FEA000C08BF704743F096437C
:100C100001464FF000001CE050EA010208BF704797
:100C20004FF000030AE000BF50EA010208BF70471E
:100C300011F0004302D5404261EB41015FEA010C33
:100C400002BF84460146002043F0B64308BFA3F12B
:100C50008053A3F50003BCFA8CF2083AA3EBC2530D
:100C600010DB01FA02FC634400FA02FCC2F120022C
:100C7000BCF1004F20FA02F243EB020008BF20F063
:100C80000100704702F1200201FA02FCC2F12002C9
:100C900050EA4C0021FA02F243EB020008BF20EABE
:100CA000DC7070474FF0FF0C1CEAD0521EBF1CEAEC
:100CB000D15392EA0C0F93EA0C0F6FD01A4480EADA
:100CC000010C400218BF5FEA41211ED04FF00063C3
:100CD00043EA501043EA5111A0FB01310CF00040EF
:100CE000B1F5000F3EBF490041EAD3715B0040EA15
:100CF000010062F17F02FD2A1DD8B3F1004F40EBE5
:100D0000C25008BF20F00100704790F0000F0CF0B7
:100D1000004C08BF49024CEA502040EA51207F3A7B
:100D2000C2BFD2F1FF0340EAC250704740F4000056
:100D30004FF00003013A5DDC12F1190FDCBF00F047
:100D400000407047C2F10002410021FA02F1C2F1F5
:100D5000200200FA02FC5FEA310040F1000053EA91
:100D60004C0308BF20EADC70704792F0000F00F0DF
:100D7000004C02BF400010F4000F013AF9D040EAE5
:100D80000C0093F0000F01F0004C02BF490011F479
:100D9000000F013BF9D041EA0C018FE70CEAD15377
:100DA00092EA0C0F18BF93EA0C0F0AD030F0004CF7
:100DB00018BF31F0004CD8D180EA010000F00040AB
:100DC000704790F0000F17BF90F0004F084691F069
:100DD000000F91F0004F14D092EA0C0F01D14202A3
:100DE0000FD193EA0C0F03D14B0218BF084608D16C
:100DF00080EA010000F0004040F0FE4040F40000B6
:100E0000704740F0FE4040F4400070474FF0FF0C48
:100E10001CEAD0521EBF1CEAD15392EA0C0F93EA8F
:100E20000C0F69D0A2EB030280EA010C49024FEAE1
:100E3000402037D04FF0805343EA111143EA10139A
:100E40000CF000408B4238BF5B0042F17D024FF452
:100E5000000C8B4224BF5B1A40EA0C00B3EB510F2D
:100E600024BFA3EB510340EA5C00B3EB910F24BF16
:100E7000A3EB910340EA9C00B3EBD10F24BFA3EB9B
:100E8000D10340EADC001B0118BF5FEA1C1CE0D163
:100E9000FD2A3FF650AF8B4240EBC25008BF20F016
:100EA000010070470CF0004C4CEA50207F32C2BF6A
:100EB000D2F1FF0340EAC250704740F400004FF007
:100EC0000003013A37E792F0000F00F0004C02BF38
:100ED000400010F4000F013AF9D040EA0C0093F002
:100EE000000F01F0004C02BF490011F4000F013B5C
:100EF000F9D041EA0C0195E70CEAD15392EA0C0FC4
:100F000008D142027FF47DAF93EA0C0F7FF470AFFB
:100F1000084676E793EA0C0F04D14B023FF44CAF3E
:100F200008466EE730F0004C18BF31F0004CCAD1D3
:100F300030F000427FF45CAF31F000437FF43CAF0F
:100F40005FE700BF4FF0FF3C06E000BF4FF0010C31
:100F500002E000BF4FF0010C4DF804CD4FEA400213
:100F60004FEA41037FEA226C18BF7FEA236C11D05D
:100F700001B052EA530C18BF90EA010F58BFB2EB10
:100F8000030088BFC81738BF6FEAE17018BF40F090
:100F9000010070477FEA226C02D15FEA402C05D144
:100FA0007FEA236CE4D15FEA412CE1D05DF8040BC9
:100FB000704700BF844608466146FFE70FB5FFF75C
:100FC000C9FF002848BF10F1000F0FBD4DF808ED14
:100FD000FFF7F4FF0CBF012000205DF808FB00BF05
:100FE0004DF808EDFFF7EAFF34BF012000205DF85F
:100FF00008FB00BF4DF808EDFFF7E0FF94BF0120AC
:1010000000205DF808FB00BF4DF808EDFFF7D2FFA8
:1010100094BF012000205DF808FB00BF4DF808EDEB
:10102000FFF7C8FF34BF012000205DF808FB00BFB8
:101030007BB972B90029BEBF00204FF0004106E025
:1010400008BF00281CBF6FF000414FF0FF3000F0D8
:10105000BFB9ADF1080C6DE904CE002909DB002B06
:101060001ADB00F035F8DDF804E0DDE9022304B016
:101070007047404261EB4101002B1BDB00F028F878
:10108000DDF804E0DDE9022304B0404261EB4101F8
:10109000524263EB43037047524263EB430300F059
:1010A00017F8DDF804E0DDE9022304B0404261EB0B
:1010B00041017047524263EB430300F009F8DDF849
:1010C00004E0DDE9022304B0524263EB43037047BE
:1010D0002DE9F047089D8E4604468846002B4AD1EC
:1010E0008A42174662D9B2FA82F64EB1C6F120039F
:1010F00001FA06F820FA03F3B74043EA0808B440BF
:101100004FEA174EB8FBFEF11FFA87FC0EFB118861
:1011100001FB0CF2230C43EA08439A4209D9FB185D
:1011200001F1FF3080F0EB809A4240F2E880023912
:101130003B449A1AB2FBFEF00EFB102200FB0CFCA3
:10114000A3B243EA02439C4509D9FB1800F1FF32E0
:1011500080F0D7809C4540F2D4803B44023840EA7E
:1011600001400021A3EB0C031DB10022F340C5E9AF
:101170000032BDE8F0878B4205D90DB1C5E9000109
:1011800000210846F5E7B3FA83F1002946D17345FB
:1011900002D3824200F20881841A6EEB030201201E
:1011A0009046002DE5D0C5E90048E2E7002A00F0AE
:1011B0009180B2FA82F6002E40F0A5808A1A0121B1
:1011C000030C4FEA174E80B2BCB2B2FBFEFC0EFB22
:1011D0001C2243EA024304FB0CF29A4207D9FB1893
:1011E0000CF1FF3802D29A4200F2E380C4469B1A07
:1011F000B3FBFEF20EFB123302FB04F440EA03439E
:101200009C4207D9FB1802F1FF3002D29C4200F247
:10121000CD8002461B1B42EA0C40A5E7C1F1200627
:101220008B4022FA06F71F432EFA06FA4FEA1749B7
:10123000BAFBF9F80EFA01FE20FA06F309FB18AA28
:101240001FFA87FC43EA0E0300FA01FE08FB0CF0CC
:101250001C0C44EA0A44A04202FA01F20AD93C19E1
:1012600008F1FF3A80F09E80A04240F29B80A8F1F6
:1012700002083C44241A98B2B4FBF9F309FB134466
:1012800003FB0CFC40EA0444A44509D93C1903F1D2
:10129000FF3080F08580A44540F28280023B3C44D0
:1012A00043EA0840A4EB0C04A0FB028C64454346CF
:1012B000E14664D361D05DB1BEEB030264EB090487
:1012C00004FA06F622FA01F31E43CC40C5E9006495
:1012D00000214EE7B1FBF2FC010C41EA0E4180B265
:1012E00040EA01423B46B1FBF7F138463C46B8467E
:1012F000BE462026A2EB080241EA0C4165E7014602
:1013000017E710462BE7C6F120012EFA01FCB74083
:101310000EFA06FE20FA01F141EA0E014FEA174EDD
:10132000BCFBFEF8BCB20EFB18CC08FB04F90A0C9F
:1013300042EA0C42B04091454FEA104380B23ED998
:10134000BA1808F1FF3C01D291451FD8A2EB09025F
:10135000B2FBFEF909FB04F80EFB192A8AB242EA35
:101360000A42424529D2BA1809F1FF31C2D2424598
:10137000C0D2A9F102013A44BCE7C6459BD2B8EB02
:1013800002036CEB070C0138E14694E7A7EB09096F
:101390004A44B2FBFEF9A8F1020C09FB04F8DBE7B2
:1013A00003467DE7D04665E70846FAE63B44023A45
:1013B00030E7ACF1020C3B4419E749469AE7A2EB4F
:1013C0000902B2FBFEF9C44609FB04F8C4E700BFFA
:1013D000704700BF80B584B000AF78600D4B5B688C
:1013E000FB6003F04FF803460B4AA2FB03239A0C61
:1013F0007B6802FB03F3BB6000E000BF054B5A684B
:10140000FB68D31ABA689A42F7D800BF00BF1037FA
:10141000BD4680BD001000E083DE1B4380B400AFFA
:10142000094BDB68084A43F08073D360074B002206
:101430005A60064B1B68054A43F00103136000BF66
:10144000BD4680BC704700BFF0ED00E0001000E03A
:1014500080B584B000AFF860B9603B601346FB8094
:10146000FB68BA681A60FB68FA889A80FB683A6879
:101470009A60FB683A8B9A81FB6800221A61FB68CC
:101480004FF07E525A61FB6880221A76FB6898689A
:10149000FB689B890022194602F01BFC00BF103735
:1014A000BD4680BD80B586B000AF786001F00CFA13
:1014B000034603F57A73FB6007E001F005FA024684
:1014C000FB68934201D2002381E07B681A687B6845
:1014D0009B881946104602F0E5FB0346012BECD031
:1014E00000237B610023FB7429E07B6898687B689C
:1014F0009B890122194602F0ECFB0120FFF76AFFED
:101500007B695B007B617B6898687B689B890022B4
:10151000194602F0DEFB0120FFF75CFF7B681A68CA
:101520007B689B881946104602F0BCFB0346012BE2
:1015300002D17B6901337B61FB7C0133FB74FB7C53
:10154000172BD2D90123BB747B681B7E802B02D161
:101550000123BB740CE07B681B7E402B02D103236C
:10156000BB7405E07B681B7E202B01D10223BB747A
:1015700000237B7418E07B6898687B689B89012254
:10158000194602F0A6FB0120FFF724FF7B6898684C
:101590007B689B890022194602F09BFB0120FFF724
:1015A00019FF7B7C01337B747A7CBB7C9A42E2D34B
:1015B0007B6903F40003002B04D07B6943F07F4375
:1015C0007B6103E07B6923F07F437B617B69184685
:1015D0001837BD4680BD2DE9B04F86B000AF7860AA
:1015E0000B46FB70FB78002B01D10123FB704FF001
:1015F00000024FF00003C7E904230023FB7314E04B
:101600007868FFF74FFF0346DA171C461546D7E9FF
:10161000042312EB040843EB0509C7E90489002001
:1016200001F05CF9FB7B0133FB73FA7BFB789A4298
:10163000E6D3FB7800229A46934652465B46D7E9AA
:101640000401FFF7F5FC02460B461346184618370F
:10165000BD46BDE8B08F80B584B000AF78600B4662
:10166000FB70FB7819467868FFF7B5FFF8607B6878
:10167000FA681A6100BF1037BD4680BD80B582B0E0
:1016800000AF786039604FF000013868FFF79EFCCA
:101690000346002B03D17B683A685A6100E000BF23
:1016A0000837BD4680BD80B483B000AF7860396034
:1016B0007B683A681A6100BF0C37BD4680BC704732
:1016C00080B483B000AF78607B681B6918460C3724
:1016D000BD4680BC704790B585B000AF78600B46C2
:1016E000FB70FB7819467868FFF775FFF860F868BB
:1016F000FFF784FA04467B681B691846FFF77EFAF9
:10170000034619462046FFF7C3F903461A467B688D
:101710005B6919461046FFF779FB0346BB60BB685F
:1017200018461437BD4690BD80B582B000AF7860D2
:101730007868FEF70DFD03469AB24FF0FF337968E3
:10174000034803F04EFC00BF0837BD4680BD00BF14
:10175000CC03002080B582B000AF00237B6007E09F
:101760000D4A7B68002122F813107B6801337B60EF
:101770007B68042BF4DD084B4FF00002DA60064B67
:1017800000221A8205220549054801F051FA00BFDE
:101790000837BD4680BD00BFF001002014040020C2
:1017A0003802002080B485B000AF78600023FB6071
:1017B0000EE00C4AFB6813441B781A460A4B33F8B8
:1017C00012107B68FA6823F81210FB680133FB6083
:1017D000FB68042BEDDD00BF00BF1437BD4680BCA5
:1017E000704700BF908100081404002080B582B0CB
:1017F00000AF78607B681B68044A934202D10448BA
:10180000FFF7D0FF00BF0837BD4680BD0024014070
:10181000F001002080B588B000AF78604FF0000381
:10182000FB614FF00003BB6100237B6134E07B6907
:10183000C3F102031846FFF7E1F90346344918469D
:10184000FFF730FA0346BB607B687A6933F81230E1
:101850001846FFF7CFF903463B614FF000013869A6
:10186000FFF7BEFB0346002B02D04FF000033B61A5
:101870003969B868FFF716FA03461946F869FFF7A1
:1018800009F90346FB613969B869FFF703F90346B3
:10189000BB617B6901337B617B69042BC7DD4FF042
:1018A0000001B869FFF792FB0346002B04D07B6868
:1018B0004FF00002DA6007E0B969F869FFF7A6FAAD
:1018C00003461A467B68DA607B6800221A8200238E
:1018D000FB6013E07B68FA6833F812207B68B3F989
:1018E000103019467B6833F811309A4203D9FB68EF
:1018F0001AB27B681A82FB680133FB60FB68042B19
:10190000E8DD7B68DB6818462037BD4680BD00BF38
:101910000000504190B5C5B002AF2348FFF742FF29
:101920003B462249184604F04DFA3B461846FFF75D
:10193000FBFE0023C7F8043113E01B4AD7F804313B
:1019400032F813301A463B461949184604F03AFA61
:101950003B461846FFF7E8FED7F804310133C7F8D5
:101960000431D7F80431042BE7DD0F48FFF752FFAD
:10197000C7F800010C4BB3F910301C46D7F8000132
:10198000FEF752FD02460B463846CDE900232246BB
:10199000084904F017FA3B461846FFF7C5FE00BF9A
:1019A00007F58677BD4690BDF001002058800008FD
:1019B0006C8000087480000880B598B002AFF860B1
:1019C000B9603B601346FB80F868FA88B7F860306E
:1019D00000933B68B968FFF73BFDFFF71FFDFB680D
:1019E0007A6EDA61FB68BA6E1A62FB68244A5A6240
:1019F000FB68244A9A62FB68234ADA62FB68234A3E
:101A00001A63FA68FB68DB6919461046FFF736FE71
:101A1000FA68FB681B6A19461046FFF744FE1C482B
:101A2000FFF782FEFB680A211846FFF754FE78652F
:101A3000786DFEF7F9FC02460B4607F114001549D4
:101A400004F0C0F907F114031846FFF76DFE7B6D33
:101A500023F000434FF07E511846FFF7DFFA0346AC
:101A6000002B05D00C48FFF75FFEF86800F018F86F
:101A70000A48FFF759FE00BF5837BD4680BD00BF7A
:101A8000CDCC4C3E0000A04100007A440000FA4456
:101A900094800008C0800008E880000828810008C1
:101AA00080B582B000AF78607B680A211846FFF7E6
:101AB000D2FD7B681846FFF703FE02467B681A6278
:101AC00000BF0837BD4680BD80B584B004AF00F0CC
:101AD000A3FE00F043F800F0EFFA00F0CFFA00F0B8
:101AE00099F800F09FF900F09FFA00F00BF900F070
:101AF000EDF900F045FA114800F0ECFF104B0293AD
:101B0000104B01934FF4007300930F4B4FF480720E
:101B10000D490E48FFF750FFFFF71CFE0C48FFF77A
:101B200003FE642309220B490B4803F05AFAFFF71E
:101B3000F1FE642000F0D2FE00BFF2E73802002080
:101B4000A918FBFF44DBCF43000C01400402002036
:101B50006081000884810008CC03002080B594B027
:101B600000AF07F1280328220021184604F08FF95E
:101B700007F1140300221A605A609A60DA601A6151
:101B80003B1D00221A605A609A60DA600123BB6232
:101B90004FF48033FB6200233B630123BB630223CA
:101BA0007B644FF48033BB644FF4E013FB6407F1B4
:101BB0002803184602F0A6F80346002B01D000F0D7
:101BC000E9FA0F237B610223BB610023FB614FF421
:101BD00080633B624FF480637B6207F11403022150
:101BE000184602F011FB0346002B01D000F0D2FA98
:101BF00002237B604FF40043FB603B1D184602F05C
:101C000091FC0346002B01D000F0C4FA00BF50370E
:101C1000BD4680BD80B584B000AF3B1D00221A6078
:101C20005A609A60354B364A1A60344B4FF48072D2
:101C30009A60324B01221A73304B00221A752F4BD7
:101C40004FF46022DA612D4B00225A602B4B0522A3
:101C50001A612A4800F066FE0346002B01D000F00E
:101C600099FA04237B600123BB600623FB603B1DC4
:101C70001946224801F094F90346002B01D000F0E8
:101C800089FA00237B600223BB603B1D19461B4879
:101C900001F086F90346002B01D000F07BFA012306
:101CA0007B600323BB603B1D1946144801F078F9A3
:101CB0000346002B01D000F06DFA02237B60042361
:101CC000BB603B1D19460D4801F06AF90346002B25
:101CD00001D000F05FFA03237B600523BB603B1D4E
:101CE0001946064801F05CF90346002B01D000F0CC
:101CF00051FA00BF1037BD4680BD00BF380200203A
:101D00000024014080B592B000AF07F140030022EB
:101D10001A605A6007F1240300221A605A609A6020
:101D2000DA601A615A619A613B1D2022002118462F
:101D300004F0ADF8394B3A4A1A60384B00225A6029
:101D4000364B00229A60354B4FF6FF72DA60334B08
:101D500000221A61314B00225A61304B00229A61F5
:101D60002E4802F095FC0346002B01D000F012FA39
:101D700000233B6400237B6407F140031946274896
:101D800003F030F80346002B01D000F003FA602383
:101D90007B620023BB620023FB6200233B630023C2
:101DA0007B630023BB630023FB6307F12403002252
:101DB00019461A4802F05EFD0346002B01D000F0E0
:101DC000E9F907F124030C221946144802F052FDE8
:101DD0000346002B01D000F0DDF900237B600023D7
:101DE000BB600023FB6000233B6100237B614FF459
:101DF0000053BB6100233B623B1D1946074803F0BB
:101E00004FF80346002B01D000F0C4F9034800F05E
:101E100035FB00BF4837BD4680BD00BFAC02002087
:101E2000002C014080B58CB000AF07F10C032422D8
:101E30000021184604F02BF83B1D00221A605A605E
:101E4000214B4FF080421A601F4B00225A601E4BFC
:101E500000229A601C4B4FF6FF72DA601A4B002288
:101E60001A61194B00229A610123FB6000233B6138
:101E700001237B610023BB610023FB6100233B62E4
:101E800001237B620023BB620023FB6207F10C038A
:101E900019460D4802F04BFC0346002B01D000F020
:101EA00079F900237B600023BB603B1D194606487F
:101EB00002F098FF0346002B01D000F06BF900BF41
:101EC0003037BD4680BD00BFF402002080B58AB027
:101ED00000AF07F1200300221A605A603B1D002268
:101EE0001A605A609A60DA601A615A619A61224BEC
:101EF000224A1A60204B00225A601F4B00229A602F
:101F00001D4B4FF6FF72DA601B4B00221A611A4B11
:101F100000229A61184802F0BBFB0346002B01D057
:101F200000F038F900233B6200237B6207F12003B5
:101F30001946114802F056FF0346002B01D000F06D
:101F400029F960237B600023BB600023FB60002332
:101F50007B613B1D04221946074802F08BFC0346B7
:101F6000002B01D000F016F9034800F087FA00BFFB
:101F70002837BD4680BD00BF3C0300200004004060
:101F800080B58CB000AF07F10C0324220021184665
:101F900003F07DFF3B1D00221A605A60204B214A4E
:101FA0001A601F4B00225A601D4B00229A601C4B86
:101FB0004FF6FF72DA601A4B00221A61184B0022AA
:101FC0009A610123FB6000233B6101237B610023B5
:101FD000BB610023FB6100233B6201237B62002382
:101FE000BB620023FB6207F10C0319460C4802F0A8
:101FF0009EFB0346002B01D000F0CCF800237B6051
:102000000023BB603B1D1946054802F0EBFE03466A
:10201000002B01D000F0BEF800BF3037BD4680BDB8
:10202000840300200008004080B500AF114B124A25
:102030001A60104B4FF4E1325A600E4B00229A6046
:102040000C4B0022DA600B4B00221A61094B0C2268
:102050005A61084B00229A61064B0022DA6105485A
:1020600002F06FFF0346002B01D000F093F800BF91
:1020700080BD00BFCC0300200038014080B582B095
:1020800000AF0C4B5B690B4A43F001035361094BF2
:102090005B6903F001037B607B68002200210B2059
:1020A00001F057FA0B2001F070FA00BF0837BD4667
:1020B00080BD00BF0010024080B588B000AF07F1BE
:1020C000100300221A605A609A60DA602E4B9B69F6
:1020D0002D4A43F0200393612B4B9B6903F02003AF
:1020E000FB60FB68284B9B69274A43F0040393611C
:1020F000254B9B6903F00403BB60BB68224B9B69C3
:10210000214A43F0080393611F4B9B6903F00803C6
:102110007B607B68002260211C4801F0DAFD002210
:1021200040F207211A4801F0D4FD60233B610123EE
:102130007B610023BB610223FB6107F11003194699
:10214000124801F02BFC40F207233B6101237B6125
:102150000023BB610223FB6107F1100319460C4801
:1021600001F01CFC4FF480733B6100237B61002372
:10217000BB6107F110031946054801F00FFC00BFD1
:102180002037BD4680BD00BF00100240000801405E
:10219000000C014080B400AF72B600BF00BFFDE785
:1021A00080B485B000AF154B9B69144A43F001031E
:1021B0009361124B9B6903F00103BB60BB680F4B3B
:1021C000DB690E4A43F08053D3610C4BDB6903F0AB
:1021D00080537B607B680A4B5B68FB60FB6823F085
:1021E000E063FB60FB6843F08063FB60044AFB68CC
:1021F000536000BF1437BD4680BC704700100240DA
:102200000000014080B588B000AF786007F110038E
:1022100000221A605A609A60DA607B681B682D4A57
:10222000934252D12C4B9B692B4A43F40073936128
:10223000294B9B6903F40073FB60FB68264B9B6989
:10224000254A43F004039361234B9B6903F0040385
:10225000BB60BB681F233B6103237B6107F1100355
:1022600019461E4801F09AFB1D4B1E4A1A601C4B72
:1022700000225A601A4B00229A60194B8022DA60C1
:10228000174B4FF480721A61154B4FF480625A61FC
:10229000134B20229A61124B4FF40052DA6110481E
:1022A00001F08EF90346002B01D0FFF773FF7B6826
:1022B0000B4A1A620A4A7B685362002200211220EC
:1022C00001F047F9122001F060F900BF2037BD4648
:1022D00080BD00BF00240140001002400008014002
:1022E000680200200800024080B485B000AF78602A
:1022F0007B681B68124A93420CD1124B9B69114AAE
:1023000043F4006393610F4B9B6903F40063FB602C
:10231000FB6810E07B681B680B4A93420BD1094BAA
:10232000DB69084A43F00203D361064BDB6903F023
:102330000203BB60BB6800BF1437BD4680BC70475A
:10234000002C0140001002400004004080B58CB019
:1023500000AF786007F11C0300221A605A609A608F
:10236000DA607B681B68B3F1804F4FD13E4BDB696D
:102370003D4A43F00103D3613B4BDB6903F00103AA
:10238000BB61BB69384B9B69374A43F004039361D7
:10239000354B9B6903F004037B617B69324B9B697E
:1023A000314A43F0080393612F4B9B6903F0080304
:1023B0003B613B694FF40043FB6100233B62002318
:1023C0007B6207F11C031946284801F0E7FA08234D
:1023D000FB6100233B6200237B6207F11C0319466B
:1023E000234801F0DBFA234B5B68FB62FB6A23F4B2
:1023F0004073FB62FB6A43F0E063FB62FB6A43F4F9
:102400008073FB621B4AFB6A536028E07B681B6891
:10241000194A934223D1144BDB69134A43F0040356
:10242000D361114BDB6903F00403FB60FB680E4BC7
:102430009B690D4A43F0080393610B4B9B6903F0C2
:102440000803BB60BB68C023FB6100233B62002321
:102450007B6207F11C031946054801F09FFA00BF93
:102460003037BD4680BD00BF00100240000801406B
:10247000000C0140000001400008004080B588B019
:1024800000AF786007F1100300221A605A609A606A
:10249000DA607B681B681F4A934219D11E4B9B6907
:1024A0001D4A43F0040393611B4B9B6903F0040333
:1024B000FB60FB684FF410633B6102237B610223E6
:1024C000FB6107F110031946144801F067FA1CE09C
:1024D0007B681B68124A934217D10F4B9B690E4AC7
:1024E00043F0040393610C4B9B6903F00403BB604E
:1024F000BB6880233B6102237B610223FB6107F100
:1025000010031946054801F049FA00BF2037BD46BF
:1025100080BD00BF002C01400010024000080140B7
:102520000004004080B588B000AF786007F1100368
:1025300000221A605A609A60DA607B681B681C4A45
:10254000934231D11B4B9B691A4A43F480439361F8
:10255000184B9B6903F48043FB60FB68154B9B6938
:10256000144A43F004039361124B9B6903F0040384
:10257000BB60BB684FF400733B6102237B610323A4
:10258000FB6107F1100319460B4801F007FA4FF4FD
:1025900080633B6100237B610023BB6107F1100373
:1025A0001946054801F0FAF900BF2037BD4680BD45
:1025B00000380140001002400008014080B400AF24
:1025C00000BFFDE780B400AF00BFFDE780B400AFFF
:1025D00000BFFDE780B400AF00BFFDE780B400AFEF
:1025E00000BFFDE780B400AF00BFBD4680BC7047B0
:1025F00080B400AF00BFBD4680BC704780B400AF60
:1026000000BFBD4680BC704780B500AF00F04AF9FE
:1026100000BF80BD80B500AF024801F08BF800BF5D
:1026200080BD00BF6802002080B500AF024800F006
:10263000DDFB00BF80BD00BF3802002080B400AFCA
:1026400001231846BD4680BC704780B582B000AFFC
:102650007860396003F06EFC034616221A604FF072
:10266000FF3318460837BD4680BD80B582B000AF45
:1026700078604FF0FF317868FFF7E7FF00BFFDE7B4
:1026800080B586B000AFF860B9607A6000237B61E6
:102690000AE0AFF300800146BB685A1CBA60CAB2B8
:1026A0001A707B6901337B617A697B689A42F0DB3F
:1026B0007B6818461837BD4680BD80B586B000AF30
:1026C000F860B9607A6000237B6109E0BB685A1C3E
:1026D000BA601B781846AFF300807B6901337B61D9
:1026E0007A697B689A42F1DB7B6818461837BD46E9
:1026F00080BD80B483B000AF78604FF0FF331846E0
:102700000C37BD4680BC704780B483B000AF7860A2
:1027100039603B684FF400525A60002318460C376A
:10272000BD4680BC704780B483B000AF78600123A1
:1027300018460C37BD4680BC704780B485B000AFEA
:10274000F860B9607A60002318461437BD4680BC33
:102750007047000080B586B000AF7860144A154B12
:10276000D31A7B617B693B61134B1B68002B02D141
:10277000114B124A1A60104B1A687B6813443A696D
:102780009A4207D203F0D6FB03460C221A604FF0A0
:10279000FF3309E0084B1B68FB60074B1A687B6836
:1027A0001344054A1360FB6818461837BD4680BDC0
:1027B00000500020000400002004002078050020C4
:1027C00080B400AF00BFBD4680BC7047FFF7F8FF84
:1027D0000B480C490C4A002302E0D458C45004337F
:1027E000C4188C42F9D3094A094C002301E0136054
:1027F0000432A242FBD303F0A3FBFFF765F9704755
:1028000000000020D401002044850008D4010020ED
:1028100074050020FEE7000080B500AF084B1B6880
:10282000074A43F010031360032000F087FE0F20D7
:1028300000F008F8FFF7B4FC0023184680BD00BF85
:102840000020024080B582B000AF7860124B1A6859
:10285000124B1B7819464FF47A73B3FBF1F3B2FBBA
:10286000F3F3184600F09FFE0346002B01D001232E
:102870000EE07B680F2B0AD8002279684FF0FF30FA
:1028800000F067FE064A7B681360002300E0012326
:1028900018460837BD4680BD000000200800002013
:1028A0000400002080B400AF054B1B781A46054B8E
:1028B0001B681344034A136000BFBD4680BC7047C9
:1028C000080000202404002080B400AF024B1B68E5
:1028D0001846BD4680BC70472404002080B584B0F3
:1028E00000AF7860FFF7F0FFB8607B68FB60FB68C3
:1028F000B3F1FF3F05D00A4B1B781A46FB6813441F
:10290000FB6000BFFFF7E0FF0246BB68D31AFA681E
:102910009A42F7D800BF00BF1037BD4680BD00BF48
:102920000800002080B586B000AF78600023FB75FA
:1029300000233B610023BB600023FB607B68002B0E
:1029400001D10123BEE07B689B68002B7B689B6AFA
:10295000002B09D17B680022DA627B68002283F8B1
:1029600024207868FFF74EFC786800F06BFC034683
:10297000FB757B689B6A03F01003002B40F0998085
:10298000FB7D002B40F095807B689B6A23F4885385
:1029900023F0020343F002027B689A627B685A6864
:1029A0007B68DB691A437B681B7B5B001343BA6857
:1029B0001343BB607B689B68B3F5807F03D07B6863
:1029C0009B68012B02D14FF4807300E000233A6929
:1029D00013433B617B681B7D012B19D17B681B7BFB
:1029E000002B09D17B689B69013B5A033B69134368
:1029F00043F400633B610BE07B689B6A43F0200279
:102A00007B689A627B68DB6A43F001027B68DA626A
:102A10007B681B685B6823F469417B681B683A69C3
:102A20000A435A607B681B689A68284B13407A688F
:102A30001268B9680B4393607B689B68B3F5807F2D
:102A400003D07B689B68012B04D17B681B69013B29
:102A50001B05FB607B681B68DB6A23F470017B68E5
:102A60001B68FA680A43DA627B681B689A68184B2D
:102A70001340BA689A420BD17B680022DA627B6805
:102A80009B6A23F0030343F001027B689A6218E01B
:102A90007B689B6A23F0120343F010027B689A6202
:102AA0007B68DB6A43F001027B68DA620123FB7515
:102AB00007E07B689B6A43F010027B689A620123FF
:102AC000FB75FB7D18461837BD4680BDFDF7E1FF5D
:102AD000FE0E1FFF80B584B000AF78600023FB734B
:102AE0007B6893F82430012B01D1022398E07B68A6
:102AF000012283F82420786800F04AFB0346FB7328
:102B0000FB7B002B40F087807B689B6A23F440733B
:102B100023F0010343F480727B689A627B681B6830
:102B2000414A934205D1414B5B6803F47023002B6B
:102B300015D17B689B6A23F480127B689A627B685C
:102B40001B685B6803F48063002B26D07B689B6A5C
:102B500023F4405343F480527B689A621DE07B6803
:102B60009B6A43F480127B689A627B681B682F4AD9
:102B7000934204D07B681B682B4A93420DD12B4BA8
:102B80005B6803F48063002B07D07B689B6A23F4A7
:102B9000405343F480527B689A627B689B6A03F4DB
:102BA0008053002B06D07B68DB6A23F006027B682B
:102BB000DA6202E07B680022DA627B68002283F836
:102BC00024207B681B686FF002021A607B681B6818
:102BD0009B6803F46023B3F5602F13D17B681B68F7
:102BE000114A934205D1114B5B6803F47023002B0B
:102BF00008D17B681B689A687B681B6842F4A00256
:102C00009A600CE07B681B689A687B681B6842F4DA
:102C100080129A6003E07B68002283F82420FB7B0B
:102C200018461037BD4680BD0028014000240140F1
:102C300080B586B000AFF860B9607A600023FB759C
:102C4000FB681B68644A934204D0FB681B68634AB4
:102C5000934206D1604B5B6803F47023002B40F075
:102C6000B380FB6893F82430012B01D10223AEE03E
:102C7000FB68012283F82420F86800F089FA0346F3
:102C8000FB75FB7D002B40F09A80FB689B6A23F468
:102C9000706323F0010343F48072FB689A62FB685F
:102CA0001B684E4A934205D14B4B5B6803F470237B
:102CB000002B15D1FB689B6A23F48012FB689A6293
:102CC000FB681B685B6803F48063002B26D0FB68FD
:102CD0009B6A23F4405343F48052FB689A621DE0E0
:102CE000FB689B6A43F48012FB689A62FB681B686E
:102CF000394A934204D0FB681B68384A93420DD18D
:102D0000354B5B6803F48063002B07D0FB689B6A3C
:102D100023F4405343F48052FB689A62FB689B6A39
:102D200003F48053002B06D0FB68DB6A23F0060215
:102D3000FB68DA6202E0FB680022DA62FB680022CC
:102D400083F82420FB681B6A254A9A62FB681B6A89
:102D5000244ADA62FB681B6A234A1A63FB681B6811
:102D60006FF002021A60FB681B689A68FB681B68B8
:102D700042F480729A60FB68186AFB681B684C33E7
:102D80001946BA687B6800F075FCFB681B689B6895
:102D900003F46023B3F5602F08D1FB681B689A68C1
:102DA000FB681B6842F4A0029A600FE0FB681B6896
:102DB0009A68FB681B6842F480129A6006E0FB6820
:102DC000002283F8242001E00123FB75FB7D1846D7
:102DD0001837BD4680BD00BF0024014000280140D7
:102DE000C7320008433300085F33000880B584B061
:102DF00000AF78607B681B681B68FB607B681B68A2
:102E00005B68BB60BB6803F02003002B3ED0FB680F
:102E100003F00203002B39D07B689B6A03F0100398
:102E2000002B05D17B689B6A43F400727B689A6231
:102E30007B681B689B6803F46023B3F5602F1DD18A
:102E40007B681B7B002B19D17B681B685A687B68E9
:102E50001B6822F020025A607B689B6A23F4807210
:102E60007B689A627B689B6A03F48053002B05D1D0
:102E70007B689B6A43F001027B689A627868FEF780
:102E8000B5FC7B681B686FF012021A60BB6803F028
:102E90008003002B4DD0FB6803F00403002B48D0C7
:102EA0007B689B6A03F01003002B05D17B689B6A4B
:102EB00043F400527B689A627B681B689B6803F44A
:102EC000E043B3F5E04F12D07B681B685B6803F406
:102ED0008063002B25D17B681B689B6803F460230B
:102EE000B3F5602F1DD17B681B7B002B19D17B684C
:102EF0001B685A687B681B6822F080025A607B68F6
:102F00009B6A23F480527B689A627B689B6A03F415
:102F10008073002B05D17B689B6A43F001027B68BC
:102F20009A62786800F035FA7B681B686FF00C02D3
:102F30001A60BB6803F04003002B12D0FB6803F05B
:102F40000103002B0DD07B689B6A43F480327B68C1
:102F50009A62786800F012F87B681B686FF00102D3
:102F60001A6000BF1037BD4680BD80B483B000AF8B
:102F7000786000BF0C37BD4680BC704780B483B01A
:102F800000AF786000BF0C37BD4680BC704780B48E
:102F900083B000AF786000BF0C37BD4680BC70477F
:102FA00080B485B000AF786039600023FB730023E4
:102FB000BB607B6893F82430012B01D10223DCE055
:102FC0007B68012283F824203B685B68062B1CD8B1
:102FD0007B681B68596B3B685A6813469B00134417
:102FE000053B1F2202FA03F3DB4319403B681868D4
:102FF0003B685A6813469B001344053B00FA03F2F2
:103000007B681B680A435A633CE03B685B680C2B97
:103010001CD87B681B68196B3B685A6813469B0079
:103020001344233B1F2202FA03F3DB4319403B689E
:1030300018683B685A6813469B001344233B00FA08
:1030400003F27B681B680A431A631BE07B681B68FA
:10305000D96A3B685A6813469B001344413B1F22C0
:1030600002FA03F3DB4319403B6818683B685A686F
:1030700013469B001344413B00FA03F27B681B6834
:103080000A43DA623B681B68092B1CD97B681B6802
:10309000D9683B681A6813465B0013441E3B07223D
:1030A00002FA03F3DB4319403B6898683B681A68EF
:1030B00013465B0013441E3B00FA03F27B681B6857
:1030C0000A43DA6019E07B681B6819693B681A6873
:1030D00013465B001344072202FA03F3DB43194053
:1030E0003B6898683B681A6813465B00134400FA13
:1030F00003F27B681B680A431A613B681B68102B4C
:1031000003D03B681B68112B32D17B681B681D4ABA
:10311000934225D17B681B689B6803F40003002B56
:1031200026D17B681B689A687B681B6842F40002A2
:103130009A603B681B68102B1AD1134B1B68134A0B
:10314000A2FB03239A0C13469B0013445B00BB6055
:1031500002E0BB68013BBB60BB68002BF9D107E014
:103160007B689B6A43F020027B689A620123FB73B1
:103170007B68002283F82420FB7B18461437BD4669
:1031800080BC7047002401400000002083DE1B4308
:1031900080B584B000AF78600023FB600023BB6083
:1031A0007B681B689B6803F00103012B40D07B68A0
:1031B0001B689A687B681B6842F001029A601F4B8B
:1031C0001B681F4AA2FB03239B0CBB6002E0BB6889
:1031D000013BBB60BB68002BF9D1FFF775FBF860C2
:1031E0001FE0FFF771FB0246FB68D31A022B18D9C8
:1031F0007B681B689B6803F00103012B11D07B687F
:103200009B6A43F010027B689A627B68DB6A43F03A
:1032100001027B68DA627B68002283F824200123A4
:1032200007E07B681B689B6803F00103012BD8D182
:10323000002318461037BD4680BD00BF00000020A7
:1032400083DE1B4380B584B000AF78600023FB6051
:103250007B681B689B6803F00103012B2ED17B6800
:103260001B689A687B681B6822F001029A60FFF76E
:103270002BFBF8601BE0FFF727FB0246FB68D31A25
:10328000022B14D97B681B689B6803F00103012B98
:103290000DD17B689B6A43F010027B689A627B6861
:1032A000DB6A43F001027B68DA62012307E07B6896
:1032B0001B689B6803F00103012BDCD00023184638
:1032C0001037BD4680BD80B584B000AF78607B68A4
:1032D0005B6AFB60FB689B6A03F05003002B27D1FD
:1032E000FB689B6A43F40072FB689A62FB681B6888
:1032F0009B6803F46023B3F5602F15D1FB681B7B3B
:10330000002B11D1FB689B6A23F48072FB689A62E0
:10331000FB689B6A03F48053002B05D1FB689B6A12
:1033200043F00102FB689A62F868FEF75FFA04E076
:10333000FB681B6A1B6B7868984700BF1037BD4657
:1033400080BD80B584B000AF78607B685B6AFB604D
:10335000F868FFF70AFE00BF1037BD4680BD80B594
:1033600084B000AF78607B685B6AFB60FB689B6A37
:1033700043F04002FB689A62FB68DB6A43F0040298
:10338000FB68DA62F868FFF702FE00BF1037BD463F
:1033900080BD80B483B000AF786000BF0C37BD46FD
:1033A00080BC704780B485B000AF78607B6803F064
:1033B0000703FB600C4BDB68BB60BA684FF6FF038A
:1033C0001340BB60FB681A02BB68134343F0BF6342
:1033D00043F40033BB60044ABB68D36000BF1437BA
:1033E000BD4680BC704700BF00ED00E080B400AF78
:1033F000044BDB681B0A03F007031846BD4680BC7C
:10340000704700BF00ED00E080B483B000AF03461A
:10341000FB7197F90730002B0BDBFB7903F01F02E0
:10342000064997F907305B09012000FA02F241F8DA
:10343000232000BF0C37BD4680BC704700E100E090
:1034400080B483B000AF03463960FB7197F9073051
:10345000002B0ADB3B68DAB20C4997F907301201FE
:10346000D2B20B4483F800230AE03B68DAB2084981
:10347000FB7903F00F03043B1201D2B20B441A761E
:1034800000BF0C37BD4680BC704700BF00E100E0C4
:1034900000ED00E080B489B000AFF860B9607A60F8
:1034A000FB6803F00703FB61FB69C3F10703042B0F
:1034B00028BF0423BB61FB690433062B02D9FB69D7
:1034C000033B00E000237B614FF0FF32BB6902FA4F
:1034D00003F3DA43BB681A407B699A404FF0FF312F
:1034E0007B6901FA03F3D9437B680B401343184609
:1034F0002437BD4680BC704780B582B000AF78608D
:103500007B68013BB3F1807F01D301230FE00A4ABE
:103510007B68013B53600F214FF0FF30FFF790FFB6
:10352000054B00229A60044B07221A6000231846BC
:103530000837BD4680BD00BF10E000E080B582B016
:1035400000AF78607868FFF72DFF00BF0837BD46F1
:1035500080BD80B586B000AF0346B9607A60FB736A
:1035600000237B61FFF742FF78617A68B968786968
:10357000FFF790FF024697F90F3011461846FFF704
:103580005FFF00BF1837BD4680BD80B582B000AF79
:103590000346FB7197F907301846FFF735FF00BF68
:1035A0000837BD4680BD80B582B000AF78607868CE
:1035B000FFF7A2FF034618460837BD4680BD00004E
:1035C00080B485B000AF78600023FB607B68002B7F
:1035D00001D1012343E07B681B681A46224B134448
:1035E000224AA2FB03231B099A007B681A647B68AA
:1035F0001F4ADA637B68022283F821207B681B68FC
:103600001B68FB60FB6823F47F5323F03003FB60EF
:103610007B685A687B689B681A437B68DB681A433F
:103620007B681B691A437B685B691A437B689B69EB
:103630001A437B68DB691343FA681343FB607B68BA
:103640001B68FA681A607B6800229A637B68012213
:1036500083F821207B68002283F82020002318466D
:103660001437BD4680BC7047F8FFFDBFCDCCCCCC35
:103670000000024080B586B000AFF860B9607A60A3
:103680003B600023FB75FB6893F82030012B01D1D0
:1036900002234BE0FB68012283F82020FB6893F8AB
:1036A0002130DBB2012B3AD1FB68022283F82120C2
:1036B000FB6800229A63FB681B681A68FB681B683A
:1036C00022F001021A603B687A68B968F86800F075
:1036D00037F9FB68DB6A002B08D0FB681B681A68A7
:1036E000FB681B6842F00E021A600FE0FB681B6863
:1036F0001A68FB681B6822F004021A60FB681B68EA
:103700001A68FB681B6842F00A021A60FB681B68B3
:103710001A68FB681B6842F001021A6005E0FB684A
:10372000002283F820200223FB75FB7D1846183702
:10373000BD4680BD80B584B000AF78607B68DB6B30
:103740001B68FB607B681B681B68BB607B681B6C2D
:1037500004229A40FB681340002B4FD0BB6803F053
:103760000403002B4AD07B681B681B6803F020030E
:10377000002B07D17B681B681A687B681B6822F0E6
:1037800004021A607B681B68664A934229D07B68F2
:103790001B68654A934222D07B681B68634A934248
:1037A0001AD07B681B68624A934212D07B681B6800
:1037B000604A93420AD07B681B685F4A934202D1F9
:1037C0004FF480030EE04FF080630BE04FF4802352
:1037D00008E04FF4804305E04FF4806302E04023AB
:1037E00000E00423554A53607B68DB6A002B00F03D
:1037F00094807B68DB6A786898478EE07B681B6CF6
:1038000002229A40FB681340002B56D0BB6803F09D
:103810000203002B51D07B681B681B6803F0200358
:10382000002B0BD17B681B681A687B681B6822F031
:103830000A021A607B68012283F821207B681B68DA
:10384000384A934229D07B681B68374A934222D07A
:103850007B681B68354A93421AD07B681B68344AE0
:10386000934212D07B681B68324A93420AD07B682D
:103870001B68314A934202D14FF400130EE04FF01F
:1038800000730BE04FF4003308E04FF4005305E001
:103890004FF4007302E0202300E00223274A536024
:1038A0007B68002283F820207B689B6A002B34D041
:1038B0007B689B6A786898472FE07B681B6C0822BE
:1038C0009A40FB681340002B28D0BB6803F0080324
:1038D000002B23D07B681B681A687B681B6822F06A
:1038E0000E021A607B681A6C7B68DB6B012101FA9F
:1038F00002F25A607B6801229A637B68012283F896
:1039000021207B68002283F820207B681B6B002B22
:1039100004D07B681B6B7868984700BF00BF1037E6
:10392000BD4680BD080002401C000240300002403D
:1039300044000240580002406C0002400000024077
:1039400080B485B000AFF860B9607A603B60FB6816
:103950001A6CFB68DB6B012101FA02F25A60FB680A
:103960001B683A685A60FB685B68102B08D1FB68DB
:103970001B687A689A60FB681B68BA68DA6007E0BF
:10398000FB681B68BA689A60FB681B687A68DA6033
:1039900000BF1437BD4680BC7047000080B48BB0B8
:1039A00000AF7860396000237B6200233B6269E1ED
:1039B00001227B6A02FA03F3FB613B681B68FA6928
:1039C0001340BB61BA69FB699A4240F058813B6879
:1039D0005B689A4A93425ED0984A934275D8984A57
:1039E000934258D0964A93426FD8964A934252D007
:1039F000944A934269D8944A93424CD0924A934253
:103A000063D8924A934246D0904A93425DD8122B93
:103A10002AD8122B59D801A252F823F0973A00085D
:103A2000713A0008833A0008C53A0008CB3A00080A
:103A3000CB3A0008CB3A0008CB3A0008CB3A000852
:103A4000CB3A0008CB3A0008CB3A0008CB3A000842
:103A5000CB3A0008CB3A0008CB3A0008CB3A000832
:103A6000793A00088D3A0008794A934213D02CE045
:103A70003B68DB683B6229E03B68DB6804333B6200
:103A800024E03B68DB6808333B621FE03B68DB688F
:103A90000C333B621AE03B689B68002B02D1042385
:103AA0003B6213E03B689B68012B05D108233B6216
:103AB0007B68FA691A6109E008233B627B68FA694E
:103AC0005A6103E000233B6200E000BFBB69FF2BAB
:103AD00001D87B6801E07B6804337B61BB69FF2B05
:103AE00002D87B6A9B0002E07B6A083B9B003B613B
:103AF0007B691A680F213B6901FA03F3DB431A4023
:103B0000396A3B6901FA03F31A437B691A603B681F
:103B10005B6803F08053002B00F0B1804D4B9B6934
:103B20004C4A43F0010393614A4B9B6903F0010344
:103B3000BB60BB68484A7B6A9B08023352F823305B
:103B4000FB607B6A03F003039B000F2202FA03F37E
:103B5000DB43FA681340FB607B68404A934213D012
:103B60007B683F4A93420DD07B683E4A934207D020
:103B70007B683D4A934201D1032306E0042304E01D
:103B8000022302E0012300E000237A6A02F003022C
:103B900092009340FA681343FB602F497B6A9B08AD
:103BA0000233FA6841F823203B685B6803F4801312
:103BB000002B06D02D4B9A682C49BB6913438B60B0
:103BC00006E02A4B9A68BB69DB43284913408B60A7
:103BD0003B685B6803F40013002B06D0234BDA68C4
:103BE0002249BB691343CB6006E0204BDA68BB690E
:103BF000DB431E491340CB603B685B6803F4003332
:103C0000002B06D0194B5A681849BB6913434B6007
:103C100006E0164B5A68BB69DB43144913404B60FE
:103C20003B685B6803F48033002B21D00F4B1A688C
:103C30000E49BB6913430B6021E000BF0000321046
:103C400000003110000022100000211000001210AE
:103C50000000111000100240000001400008014067
:103C6000000C01400010014000140140000401401C
:103C70000B4B1A68BB69DB43094913400B607B6A35
:103C800001337B623B681A687B6A22FA03F3002BDC
:103C90007FF48EAE00BF00BF2C37BD4680BC70479E
:103CA0000004014080B485B000AF78600B467B8093
:103CB0007B689A687B881340002B02D00123FB733A
:103CC00001E00023FB73FB7B18461437BD4680BC24
:103CD000704780B483B000AF78600B467B8013469A
:103CE0007B707B78002B03D07A887B681A6103E0B5
:103CF0007B881A047B681A6100BF0C37BD4680BC04
:103D00007047000080B586B000AF78607B68002BFC
:103D100001D1012372E27B681B6803F00103002BD1
:103D200000F08780924B5B6803F00C03042B0CD0EF
:103D30008F4B5B6803F00C03082B12D18C4B5B6834
:103D400003F48033B3F5803F0BD1894B1B6803F438
:103D50000033002B6CD07B685B68002B68D101239B
:103D60004CE27B685B68B3F5803F06D1804B1B68F3
:103D70007F4A43F4803313602EE07B685B68002B3E
:103D80000CD17B4B1B687A4A23F480331360784B49
:103D90001B68774A23F4802313601DE07B685B680F
:103DA000B3F5A02F0CD1724B1B68714A43F48023EA
:103DB00013606F4B1B686E4A43F4803313600BE053
:103DC0006B4B1B686A4A23F480331360684B1B6893
:103DD000674A23F4802313607B685B68002B13D051
:103DE000FEF772FD386108E0FEF76EFD02463B69A2
:103DF000D31A642B01D9032300E25D4B1B6803F443
:103E00000033002BF0D014E0FEF75EFD386108E0CF
:103E1000FEF75AFD02463B69D31A642B01D90323EE
:103E2000ECE1534B1B6803F40033002BF0D100E0AE
:103E300000BF7B681B6803F00203002B63D04C4B70
:103E40005B6803F00C03002B0BD0494B5B6803F05D
:103E50000C03082B1CD1464B5B6803F48033002B0A
:103E600016D1434B1B6803F00203002B05D07B687F
:103E70001B69012B01D00123C0E13D4B1B6823F0DE
:103E8000F8027B685B69DB00394913430B603AE059
:103E90007B681B69002B20D0364B01221A60FEF78D
:103EA00013FD386108E0FEF70FFD02463B69D31AA7
:103EB000022B01D90323A1E12D4B1B6803F0020360
:103EC000002BF0D02A4B1B6823F0F8027B685B695B
:103ED000DB00274913430B6015E0264B00221A60D4
:103EE000FEF7F2FC386108E0FEF7EEFC02463B69A3
:103EF000D31A022B01D9032380E11D4B1B6803F069
:103F00000203002BF0D17B681B6803F00803002B31
:103F10003AD07B689B69002B19D0174B01221A609D
:103F2000FEF7D2FC386108E0FEF7CEFC02463B69A2
:103F3000D31A022B01D9032360E10D4B5B6A03F016
:103F40000203002BF0D0012000F0CEFA1CE00A4B57
:103F500000221A60FEF7B8FC38610FE0FEF7B4FCEF
:103F600002463B69D31A022B08D9032346E100BF5E
:103F7000001002400000424280044242924B5B6AC1
:103F800003F00203002BE9D17B681B6803F00403F4
:103F9000002B00F0A6800023FB758B4BDB6903F040
:103FA0008053002B0DD1884BDB69874A43F0805347
:103FB000D361854BDB6903F08053BB60BB68012391
:103FC000FB75824B1B6803F48073002B18D17F4B69
:103FD0001B687E4A43F480731360FEF775FC3861FA
:103FE00008E0FEF771FC02463B69D31A642B01D945
:103FF000032303E1754B1B6803F48073002BF0D09F
:104000007B68DB68012B06D16F4B1B6A6E4A43F05D
:10401000010313622DE07B68DB68002B0CD16A4B37
:104020001B6A694A23F001031362674B1B6A664AE5
:1040300023F0040313621CE07B68DB68052B0CD1C2
:10404000614B1B6A604A43F0040313625E4B1B6AB8
:104050005D4A43F0010313620BE05B4B1B6A5A4A53
:1040600023F001031362584B1B6A574A23F00403E1
:1040700013627B68DB68002B15D0FEF725FC3861E6
:104080000AE0FEF721FC02463B69D31A41F288326E
:10409000934201D90323B1E04B4B1B6A03F00203A7
:1040A000002BEED014E0FEF70FFC38610AE0FEF7BB
:1040B0000BFC02463B69D31A41F28832934201D984
:1040C00003239BE0404B1B6A03F00203002BEED15D
:1040D000FB7D012B05D13C4BDB693B4A23F0805330
:1040E000D3617B68DB69002B00F08780364B5B680F
:1040F00003F00C03082B61D07B68DB69022B46D1EF
:10410000334B00221A60FEF7DFFB386108E0FEF750
:10411000DBFB02463B69D31A022B01D903236DE076
:10412000294B1B6803F00073002BF0D17B681B6ADE
:10413000B3F5803F08D1244B5B6823F400327B68E1
:104140009B68214913434B601F4B5B6823F4741237
:104150007B68196A7B685B6A0B431B4913434B609E
:104160001B4B01221A60FEF7AFFB386108E0FEF737
:10417000ABFB02463B69D31A022B01D903233DE076
:10418000114B1B6803F00073002BF0D035E0104B8F
:1041900000221A60FEF798FB386108E0FEF794FBF6
:1041A00002463B69D31A022B01D9032326E0064BB2
:1041B0001B6803F00073002BF0D11EE07B68DB6905
:1041C000012B07D1012319E00010024000700040CC
:1041D000600042420B4B5B68FB60FB6803F480327B
:1041E0007B681B6A9A4206D1FB6803F470127B68F5
:1041F0005B6A9A4201D0012300E000231846183779
:10420000BD4680BD0010024080B584B000AF78602C
:1042100039607B68002B01D10123D0E06A4B1B6819
:1042200003F007033A689A4210D9674B1B6823F0E2
:10423000070265493B6813430B60634B1B6803F03F
:1042400007033A689A4201D00123B8E07B681B68F3
:1042500003F00203002B20D07B681B6803F00403EB
:10426000002B05D0594B5B68584A43F4E063536018
:104270007B681B6803F00803002B05D0534B5B6879
:10428000524A43F460535360504B5B6823F0F00292
:104290007B689B684D4913434B607B681B6803F048
:1042A0000103002B40D07B685B68012B07D1474B93
:1042B0001B6803F40033002B15D101237FE07B68DA
:1042C0005B68022B07D1414B1B6803F00073002B86
:1042D00009D1012373E03D4B1B6803F00203002B5F
:1042E00001D101236BE0394B5B6823F003027B684B
:1042F0005B68364913434B60FEF7E6FAF8600AE064
:10430000FEF7E2FA0246FB68D31A41F28832934282
:1043100001D9032353E02D4B5B6803F00C027B684B
:104320005B689B009A42EBD1274B1B6803F00703A5
:104330003A689A4210D2244B1B6823F007022249A4
:104340003B6813430B60204B1B6803F007033A687C
:104350009A4201D0012332E07B681B6803F004031A
:10436000002B08D0194B5B6823F4E0627B68DB68A4
:10437000164913434B607B681B6803F00803002B4E
:1043800009D0124B5B6823F460527B681B69DB0029
:104390000E4913434B6000F021F802460B4B5B685B
:1043A0001B0903F00F030A49CB5C22FA03F3094A05
:1043B0001360094B1B681846FEF744FA00231846A1
:1043C0001037BD4680BD00BF0020024000100240F3
:1043D00098810008000000200400002080B487B00D
:1043E00000AF0023FB600023BB6000237B61002340
:1043F0007B6000233B611E4B5B68FB60FB6803F046
:104400000C03042B02D0082B03D027E0194B3B618F
:1044100027E0FB689B0C03F00F03174AD35C7B601B
:10442000FB6803F48033002B10D0114B5B685B0CEE
:1044300003F00103114AD35CBB607B680D4A03FBA8
:1044400002F2BB68B2FBF3F37B6104E07B680C4AC9
:1044500002FB03F37B617B693B6102E0054B3B613F
:1044600000BF3B6918461C37BD4680BC704700BF83
:104470000010024000127A00B0810008C0810008DC
:1044800000093D0080B400AF024B1B681846BD46D2
:1044900080BC70470000002080B500AFFFF7F2FF3E
:1044A0000246054B5B681B0A03F007030349CB5C1C
:1044B00022FA03F3184680BD00100240A8810008CC
:1044C00080B500AFFFF7DEFF0246054B5B68DB0AF5
:1044D00003F007030349CB5C22FA03F3184680BDBF
:1044E00000100240A881000880B485B000AF786059
:1044F0000A4B1B680A4AA2FB03235B0A7A6802FB89
:1045000003F3FB6000BFFB685A1EFA60002BF9D171
:1045100000BF00BF1437BD4680BC704700000020BC
:10452000D34D621080B586B000AF786000233B6148
:104530000023FB607B681B6803F00103002B7DD028
:104540000023FB754F4BDB6903F08053002B0DD12B
:104550004C4BDB694B4A43F08053D361494BDB69D9
:1045600003F08053BB60BB680123FB75464B1B689F
:1045700003F48073002B18D1434B1B68424A43F469
:1045800080731360FEF7A0F9386108E0FEF79CF92C
:1045900002463B69D31A642B01D903236DE03A4BE1
:1045A0001B6803F48073002BF0D0364B1B6A03F4B6
:1045B0004073FB60FB68002B2ED07B685B6803F4C4
:1045C0004073FA689A4227D02E4B1B6A23F440733B
:1045D000FB602E4B01221A602C4B00221A60294AE4
:1045E000FB681362FB6803F00103002B14D0FEF795
:1045F0006BF938610AE0FEF767F902463B69D31AA6
:1046000041F28832934201D9032336E01D4B1B6AE5
:1046100003F00203002BEED01A4B1B6A23F4407206
:104620007B685B68174913430B62FB7D012B05D147
:10463000144BDB69134A23F08053D3617B681B68FA
:1046400003F00203002B08D00E4B5B6823F44042BA
:104650007B689B680B4913434B607B681B6803F0C6
:104660001003002B08D0074B5B6823F480027B68A3
:10467000DB68044913434B60002318461837BD46D6
:1046800080BD00BF00100240007000404004424264
:1046900080B582B000AF78607B68002B01D1012328
:1046A00041E07B6893F83D30DBB2002B06D17B689C
:1046B000002283F83C207868FDF716FE7B68022212
:1046C00083F83D207B681A687B68043319461046DE
:1046D00000F092F97B68012283F846207B68012272
:1046E00083F83E207B68012283F83F207B6801220B
:1046F00083F840207B68012283F841207B680122F7
:1047000083F842207B68012283F843207B680122E2
:1047100083F844207B68012283F845207B680122CE
:1047200083F83D20002318460837BD4680BD80B57C
:1047300086B000AF786039607B68002B01D101231F
:1047400093E07B6893F83D30DBB2002B06D17B68A9
:10475000002283F83C207868FDF7F8FD7B68022290
:1047600083F83D207B681B689B687A68126823F495
:10477000804323F0070393607B681A687B680433E7
:104780001946104600F038F97B681B689B687B610E
:104790007B681B689B693B617B681B681B6AFB60CD
:1047A0003B681B687A6913437B613B6923F4407360
:1047B00023F003033B613B689A683B689B691B02DB
:1047C00013433A6913433B613B6923F4406323F08D
:1047D0000C033B613B6923F4704323F0F0033B611E
:1047E0003B68DA683B68DB691B0213433A69134391
:1047F0003B613B681B691A013B681B6A1B0313433F
:104800003A6913433B61FB6823F02203FB603B687A
:104810005A683B685B691B011343FA681343FB60EA
:104820007B681B687A699A607B681B683A699A6141
:104830007B681B68FA681A627B68012283F846204D
:104840007B68012283F83E207B68012283F83F20A9
:104850007B68012283F842207B68012283F8432091
:104860007B68012283F83D20002318461837BD4697
:1048700080BD000080B586B000AFF860B9607A6096
:104880000023FB75FB6893F83C30012B01D1022318
:10489000AEE0FB68012283F83C207B680C2B00F221
:1048A0009F8001A252F823F0DD480008E14900088A
:1048B000E1490008E14900081D490008E1490008F4
:1048C000E1490008E14900085F490008E1490008A2
:1048D000E1490008E14900089F490008FB681B689E
:1048E000B968184600F0F6F8FB681B689A69FB681F
:1048F0001B6842F008029A61FB681B689A69FB68B2
:104900001B6822F004029A61FB681B689969BB6806
:104910001A69FB681B680A439A6164E0FB681B68BC
:10492000B968184600F03CF9FB681B689A69FB6897
:104930001B6842F400629A61FB681B689A69FB6815
:104940001B6822F480629A61FB681B689969BB68E6
:104950001B691A02FB681B680A439A6143E0FB6803
:104960001B68B968184600F085F9FB681B68DA69AE
:10497000FB681B6842F00802DA61FB681B68DA69B1
:10498000FB681B6822F00402DA61FB681B68D969C6
:10499000BB681A69FB681B680A43DA6123E0FB689D
:1049A0001B68B968184600F0CFF9FB681B68DA6924
:1049B000FB681B6842F40062DA61FB681B68DA6915
:1049C000FB681B6822F48062DA61FB681B68D969A6
:1049D000BB681B691A02FB681B680A43DA6102E0C4
:1049E0000123FB7500BFFB68002283F83C20FB7DA0
:1049F00018461837BD4680BD80B485B000AF7860DA
:104A000039607B681B68FB607B682F4A93420BD040
:104A10007B68B3F1804F07D07B682C4A934203D068
:104A20007B682B4A934208D1FB6823F07003FB603C
:104A30003B685B68FA681343FB607B68224A9342D9
:104A40000BD07B68B3F1804F07D07B681F4A93423D
:104A500003D07B681E4A934208D1FB6823F440735D
:104A6000FB603B68DB68FA681343FB60FB6823F07C
:104A700080023B685B691343FB607B68FA681A60DD
:104A80003B689A687B68DA623B681A687B689A625E
:104A90007B680D4A934203D13B681A697B681A63AD
:104AA0007B6801225A617B681B6903F00103002BBC
:104AB00005D07B681B6923F001027B681A6100BF87
:104AC0001437BD4680BC7047002C014000040040F4
:104AD0000008004080B487B000AF786039607B6820
:104AE0001B6A7B617B681B6A23F001027B681A6288
:104AF0007B685B683B617B689B69FB60FB6823F0BC
:104B00007003FB60FB6823F00303FB603B681B68DA
:104B1000FA681343FB607B6923F002037B613B6807
:104B20009B687A6913437B617B681C4A93420CD172
:104B30007B6923F008037B613B68DB687A69134378
:104B40007B617B6923F004037B617B68134A93429A
:104B500011D13B6923F480733B613B6923F40073FB
:104B60003B613B685B693A6913433B613B689B6906
:104B70003A6913433B617B683A695A607B68FA681B
:104B80009A613B685A687B685A637B687A691A62E3
:104B900000BF1C37BD4680BC704700BF002C0140E1
:104BA00080B487B000AF786039607B681B6A7B6136
:104BB0007B681B6A23F010027B681A627B685B6863
:104BC0003B617B689B69FB60FB6823F4E043FB600F
:104BD000FB6823F44073FB603B681B681B02FA68A8
:104BE0001343FB607B6923F020037B613B689B6878
:104BF0001B017A6913437B617B681D4A93420DD187
:104C00007B6923F080037B613B68DB681B017A6969
:104C100013437B617B6923F040037B617B68144A0B
:104C2000934213D13B6923F480633B613B6923F4D6
:104C300000633B613B685B699B003A6913433B61DE
:104C40003B689B699B003A6913433B617B683A6907
:104C50005A607B68FA689A613B685A687B689A6315
:104C60007B687A691A6200BF1C37BD4680BC7047FA
:104C7000002C014080B487B000AF786039607B6859
:104C80001B6A7B617B681B6A23F480727B681A62F3
:104C90007B685B683B617B68DB69FB60FB6823F0DA
:104CA0007003FB60FB6823F00303FB603B681B6839
:104CB000FA681343FB607B6923F400737B613B68F4
:104CC0009B681B027A6913437B617B681D4A934290
:104CD0000DD17B6923F400637B613B68DB681B02B9
:104CE0007A6913437B617B6923F480637B617B6812
:104CF000144A934213D13B6923F480533B613B69CF
:104D000023F400533B613B685B691B013A69134321
:104D10003B613B689B691B013A6913433B617B68BC
:104D20003A695A607B68FA68DA613B685A687B685E
:104D3000DA637B687A691A6200BF1C37BD4680BCA3
:104D4000704700BF002C014080B487B000AF78608E
:104D500039607B681B6A3B617B681B6A23F4805265
:104D60007B681A627B685B687B617B68DB69FB60E0
:104D7000FB6823F4E043FB60FB6823F44073FB60B3
:104D80003B681B681B02FA681343FB603B6923F412
:104D900000533B613B689B681B033A6913433B61CB
:104DA0007B680F4A934209D17B6923F480437B617E
:104DB0003B685B699B017A6913437B617B687A6915
:104DC0005A607B68FA68DA613B685A687B681A64E3
:104DD0007B683A691A6200BF1C37BD4680BC7047C9
:104DE000002C014080B485B000AF786039607B68EA
:104DF00093F83C30012B01D1022346E07B6801226D
:104E000083F83C207B68022283F83D207B681B6886
:104E10005B68FB607B681B689B68BB60FB6823F07A
:104E20007003FB603B681B68FA681343FB607B6898
:104E30001B68FA685A607B681B68164A93420ED05A
:104E40007B681B68B3F1804F09D07B681B68124AEE
:104E5000934204D07B681B68104A93420CD1BB6814
:104E600023F08003BB603B685B68BA681343BB6098
:104E70007B681B68BA689A607B68012283F83D20D2
:104E80007B68002283F83C20002318461437BD4677
:104E900080BC7047002C0140000400400008004026
:104EA00080B485B000AF786039600023FB607B6818
:104EB00093F83C30012B01D102233DE07B680122B5
:104EC00083F83C20FB6823F0FF023B68DB68134358
:104ED000FB60FB6823F440723B689B681343FB60F4
:104EE000FB6823F480623B685B681343FB60FB68EC
:104EF00023F400623B681B681343FB60FB6823F4E8
:104F000080523B681B691343FB60FB6823F400522B
:104F10003B685B691343FB60FB6823F480423B689A
:104F2000DB691343FB607B681B68FA685A647B6823
:104F3000002283F83C20002318461437BD4680BC6D
:104F4000704780B582B000AF78607B68002B01D1DC
:104F5000012342E07B6893F84130DBB2002B06D19D
:104F60007B68002283F840207868FDF7DBFA7B68D5
:104F7000242283F841207B681B68DA687B681B6801
:104F800022F40052DA60786800F072F97B681B68DE
:104F90001A697B681B6822F490421A617B681B685F
:104FA0005A697B681B6822F02A025A617B681B6879
:104FB000DA687B681B6842F40052DA607B68002282
:104FC0005A647B68202283F841207B68202283F882
:104FD00042207B6800225A63002318460837BD46EA
:104FE00080BD80B58AB002AFF860B9603B601346FF
:104FF000FB8000237B61FB6893F84130DBB2202B00
:1050000075D1BB68002B02D0FB88002B01D1012396
:105010006EE0FB6800225A64FB68212283F841207D
:10502000FDF752FC7861FB68FA889A84FB68FA887D
:10503000DA84FB689B68B3F5805F08D1FB681B6965
:10504000002B04D10023FB61BB68BB6103E0BB689C
:10505000FB610023BB612EE03B6800937B6900226B
:105060008021F86800F048F80346002B05D0FB6863
:10507000202283F8412003233AE0FB69002B0BD167
:10508000BB691B881A46FB681B68C2F308025A609A
:10509000BB690233BB6107E0FB691A78FB681B68D8
:1050A0005A60FB690133FB61FB68DB8C9BB2013BFF
:1050B0009AB2FB68DA84FB68DB8C9BB2002BCBD105
:1050C0003B6800937B6900224021F86800F014F8E7
:1050D0000346002B05D0FB68202283F841200323E0
:1050E00006E0FB68202283F84120002300E0022331
:1050F00018462037BD4680BD80B586B000AFF86049
:10510000B9603B601346FB713BE03B6AB3F1FF3F84
:1051100037D0FDF7D9FB02463B68D31A3A6A9A4268
:1051200002D33B6A002B01D103233AE0FB681B68E2
:10513000DB6803F00403002B23D0BB68802B20D056
:10514000BB68402B1DD0FB681B681B6803F008037D
:10515000082B16D100237B61FB681B681B687B61F1
:10516000FB681B685B687B617B69F86800F01DF871
:10517000FB6808225A64FB68002283F84020012360
:105180000FE0FB681B681A68BB681340BA689A4254
:105190000CBF01230023DBB21A46FB799A42B4D03C
:1051A000002318461837BD4680BD80B495B000AFC7
:1051B00078607B681B680C337B637B6B53E8003F34
:1051C0003B633B6B23F49073FB647B681B680C337D
:1051D000FA6C3A64FB63F96B3A6C41E80023BB63F9
:1051E000BB6B002BE5D17B681B6814333B623B6AC9
:1051F00053E8003FFB61FB6923F00103BB647B685C
:105200001B681433BA6CFA62BB62B96AFA6A41E885
:1052100000237B627B6A002BE5D17B681B6B012B33
:1052200019D17B681B680C33FB60FB6853E8003FB7
:10523000BB60BB6823F010037B647B681B680C3386
:105240007A6CBA617B617969BA6941E800233B6194
:105250003B69002BE5D17B68202283F842207B68E4
:1052600000221A6300BF5437BD4680BC704700005F
:1052700080B584B000AF78607B681B681B6923F43D
:1052800040517B68DA687B681B680A431A617B6857
:105290009A687B681B691A437B685B691343BB6030
:1052A0007B681B68DB6823F4B05323F00C037A6837
:1052B0001268B9680B43D3607B681B685B6923F491
:1052C00040717B689A697B681B680A435A617B68F6
:1052D0001B682C4A934203D1FFF7F2F8F86002E012
:1052E000FFF7DAF8F860FA6813469B0013449A0057
:1052F0001A447B685B689B00B2FBF3F3224AA2FB73
:1053000003235B091901FA6813469B0013449A00B2
:105310001A447B685B689B00B2FBF3F21A4BA3FB59
:1053200002035B09642000FB03F3D31A1B01323331
:10533000154AA2FB03235B0903F0F0031944FA6842
:1053400013469B0013449A001A447B685B689B00D9
:10535000B2FBF3F20C4BA3FB02035B09642000FBDE
:1053600003F3D31A1B013233074AA2FB03235B0961
:1053700003F00F027B681B680A449A6000BF103775
:10538000BD4680BD003801401F85EB51002B2DE943
:10539000F0471D46BBBF03F100431D4600232D23EC
:1053A00088B01446B8BF1446129A109E1370149B0E
:1053B000DDF84CA023F02008B8F1460F05D0B8F175
:1053C000450F00D10136022300E0032307AA04920F
:1053D00006AACDE902A2CDE9003622462B4600F00E
:1053E0006FFEB8F1470F074619D1119BDB070ED5A9
:1053F00000EB06090022002320462946FBF7D4FAD9
:1054000008B1CDF81C903022079B4B451ED338467F
:10541000079B159ADB1B136008B0BDE8F087B8F155
:10542000460F00EB0609E5D10378302B0AD10022A4
:10543000002320462946FBF7B7FA18B9C6F1010642
:10544000CAF80060DAF800309944D3E7591C079194
:105450001A70D9E7F7B50029B6BF2D232B2349428F
:1054600009290270437029DD0DF107031D460A2743
:10547000B1FBF7F61A4607FB1614303402F8014C5C
:105480000C46632C314603F1FF33F1DC3031941EBE
:1054900003F8011C2346411CAB420AD30DF109035A
:1054A0009B1AAC4288BF002302330344181A03B08E
:1054B000F0BD13F8016B01F8016FEDE730233031D7
:1054C0008370C170031DF1E72DE9F04F91B00C46D8
:1054D000DDF8688016461F46054600F0E1FC0368CB
:1054E00018460893FAF734FE00230E93D8F80030DC
:1054F0000990073323F0070303F1080294F818A07A
:10550000D4F800B0C8F80020D3E9008929F000439E
:105510000B93CDF828804FF0FF32DDE90A01C4E992
:1055200012899C4BFBF772FA70BBDDE90A014FF060
:10553000FF32984BFBF74CFA30BB00220023404669
:105540004946FBF73BFA10B12D2384F84330924AC9
:10555000924BBAF1470F8CBF9046984603234FF009
:10556000000923612BF004032360334621462846BB
:1055700000970FAA00F0D4F9013040F090804FF06E
:10558000FF3011B0BDE8F08F42464B4640464946D9
:10559000FBF73CFA48B14B46002BB8BF2D23804A9D
:1055A000B8BF84F843307F4BD3E763680AF0DF016C
:1055B0005A1C3FD10623636000224BF480632360B2
:1055C00006920EAACDE904A20DAA03920DF13302B0
:1055D000CDE9013263684246009328464B460A9162
:1055E000FFF7D4FE0A99804647290D9928D1C81C97
:1055F00002DB6368994240DDAAF1020A5FFA8AFA87
:105600005246013904F150000D91FFF723FF0E9A25
:1056100081461318012A236102DC2268D20701D5D2
:10562000013323619DF83330002B9ED02D2384F865
:1056300043309AE74729BFD1002BBDD10123BAE7F8
:10564000BAF1650FDCD9BAF1660F18D10029636889
:105650000BDD216113B92268D00702D501330B4459
:1056600023614FF00009A165DCE713B92268D20776
:1056700001D50233F4E70123F2E74FF0670A0E9BEE
:10568000994205DB23682161D807EAD54B1CE7E77F
:105690000029CCBF0122C1F102021344E0E72368D4
:1056A0005A0507D42369424631462846B847013097
:1056B0002BD164E7BAF1650F40F2DC80D4E9120126
:1056C00000220023FBF770F9002833D00123314674
:1056D0002846354AB84701303FF451AFDDE90D386F
:1056E000434502DB2368D8070FD5DDE9082331469F
:1056F0002846B84701303FF442AF4FF0000908F1A7
:10570000FF3804F11A0AC84509DC23689B0700F139
:105710000281E0680F9B9842B8BF184631E7012329
:10572000524631462846B84701303FF428AF09F1C8
:105730000109E8E70D9B002B38DC012331462846A0
:10574000194AB84701303FF41AAFDDE90D3959EA7B
:10575000030302D12368D907D7D5DDE908233146F1
:105760002846B84701303FF40AAF4FF0000A04F171
:105770001A0B0D9B5B42534501DC4B4693E701231B
:105780005A4631462846B84701303FF4F8AE0AF190
:10579000010AEEE7FFFFEF7FC6810008C281000823
:1057A000CE810008CA810008D2810008A36DDDF80F
:1057B00038A05345A8BF5346002B994636DC4FF01E
:1057C000000B29EAE97904F11A02A36D0A93A3EB0D
:1057D00009035B4531DC0D9B9A453ADC2368DA0707
:1057E00037D40D9BAAEB03090A9BAAEB0303994547
:1057F000A8BF9946B9F1000F33DC4FF0000829EA41
:10580000E97904F11A0B0D9BAAEB0303A3EB09033F
:1058100043457FF77AAF01235A4631462846B847B9
:1058200001303FF4ACAE08F10108ECE742463146E6
:105830002846B8470130C2D1A1E6012331462846A7
:105840000A92B84701303FF49AAE0A9A0BF1010B65
:10585000BBE73146DDE908232846B8470130C0D10F
:105860008DE60A9A4B46314628464244B8470130F5
:10587000C3D184E6DDF838A0BAF1010F01DCDB0703
:1058800036D50123424631462846B84701303FF419
:1058900076AEDDE9082331462846B84701303FF4AB
:1058A0006EAED4E91201002200230AF1FF3AFBF7A1
:1058B0007BF8C0B9534608F1010231462846B84783
:1058C00001300CD15BE601235A4631462846B847E1
:1058D00001303FF454AE08F10108D045F3DB4B46EC
:1058E00004F15002E0E64FF0000804F11A0BF4E76F
:1058F00001234246E1E701234A4631462846B8479C
:1059000001303FF43CAE08F10108E3680F995B1ADF
:105910004345F0DCFDE64FF0000804F11909F4E717
:105920002DE9F047164698468A680B690746934268
:10593000B8BF1346336091F843200C46DDF8209041
:105940000AB1013333602368990642BF33680233DA
:105950003360256815F0060506D104F1190AE368DD
:1059600032689B1AAB422BDC94F843302268003B30
:1059700018BF0123920630D44146384604F1430251
:10598000C847013023D02368226903F00603042BA3
:1059900014BF002533684FF0000608BFE56804F126
:1059A0001A0408BFED1A54F8123C08BF25EAE57541
:1059B0009342C4BF9B1AED18B5421AD1002008E0EB
:1059C0000123524641463846C847013003D14FF0C3
:1059D000FF30BDE8F0870135C1E73020E11881F8DC
:1059E00043005A1C94F845102244023382F84310B5
:1059F000C2E70123224641463846C8470130E6D077
:105A00000136D9E72DE9FF470F7E9146782F804672
:105A10000C469A460C9E01F1430207D8622F0AD821
:105A2000002F00F0D180582F00F0B88004F142061A
:105A300084F842703AE0A7F16303152BF6D801A170
:105A400051F823F09D5A0008B15A00082D5A000859
:105A50002D5A00082D5A00082D5A0008B15A000886
:105A60002D5A00082D5A00082D5A00082D5A0008FA
:105A7000AF5B0008DB5A0008695B00082D5A00087C
:105A80002D5A0008D15B00082D5A0008DB5A000887
:105A90002D5A00082D5A0008715B000833681A1D42
:105AA0001B68326004F1420684F8423001239CE016
:105AB00033682068191D3160060601D51D6803E0B2
:105AC0004506FBD5B3F90050002D03DA2D236D42B6
:105AD00084F843300A23584811E0216833680806E7
